:1000000045C0000072C1000000C200005DC00000D9
:100010005BC0000059C0000057C0000055C0000080
:1000200053C0000051C000004FC000004DC0000090
:100030004BC0000049C0000047C000006DC0000078
:1000400043C0000041C000003FC000003DC00000B0
:100050003BC0000039C0000037C0000035C00000C0
:1000600033C0000031C000002FC000002DC00000D0
:100070002BC0000029C0000027C0000025C00000E0
:1000800023C0000021C000001FC0000011241FBEBB
:10009000CFEFD0E1DEBFCDBF13E0A0E0B1E0E0E004
:1000A000F4E100E00BBF02C007900D92A633B10748
:1000B000D9F727E0A6E3B3E001C01D92AB3FB2073A
:1000C000E1F72BD30C94FE099BCF1BBA8FEF8ABBB1
:1000D00088BB87BB15BA90EF94BB90E892BB87BBF7
:1000E00013B882B91092620010926100089583B72C
:1000F0008A6083BF87B7826087BF84E681BF82E062
:1001000080936A0083E089BF0895F894F0DFDDDF13
:100110004DD34DD4789408951F920F920FB60F923D
:1001200011240BB60F920F931F932F933F934F936E
:100130005F936F937F938F939F93AF93BF93CF936F
:10014000DF93EF93FF9380913B0390913C030196E3
:1001500089352BE1920728F490933C0380933B036D
:10016000ADC010923C0310923B03809137039091F5
:10017000380301969093380380933703C0913F036F
:10018000D09140038E01000F111FF801EC0FFD1FED
:10019000EE0FFF1FE158FC4F8FE090E091838083CA
:1001A0000E94A209C00FD11FCC0FDD1FC158DC4F28
:1001B0008F779078992324F4019780689F6F019638
:1001C0009B838A83C0913F03D09140030E94A20980
:1001D0009E01220F331FC20FD31FCC0FDD1FC1584A
:1001E000DC4F65E070E00E94390902969D838C83A4
:1001F00080913F03909140030196843191052CF446
:100200009093400380933F0304C0109240031092E8
:100210003F03809137039091380363E070E00E94C0
:100220003909892B09F04AC0C0913D03D0913E03A2
:100230008E01000F111FF801EC0FFD1FEE0FFF1FC5
:10024000ED5BFC4F8FE090E0918380830E94A209D8
:10025000C00FD11FCC0FDD1FCD5BDC4F8F779078A7
:10026000992324F4019780689F6F01969B838A836A
:10027000C0913D03D0913E030E94A2099E01220F2E
:10028000331FC20FD31FCC0FDD1FCD5BDC4F65E0EA
:1002900070E0EFD701969D838C8380913D03909110
:1002A0003E0301968A3091052CF490933E0380938F
:1002B0003D0304C010923E0310923D03FF91EF9165
:1002C000DF91CF91BF91AF919F918F917F916F916E
:1002D0005F914F913F912F911F910F910F900BBE06
:1002E0000F900FBE0F901F9018951F920F920FB690
:1002F0000F9211240BB60F92CF92DF92EF92FF92E2
:100300000F931F932F933F934F935F936F937F931D
:100310008F939F93AF93BF93CF93DF93EF93FF930D
:10032000C3E4D3E00FE713E020E030E0CC24C39433
:10033000D12C8091040190910501059781F188816C
:100340009981C797099758F580914103909142038D
:100350004A815B81BC01685F7F4F64177507F8F0C5
:10036000089748175907D8F09BD2809104019091C3
:100370000501019690930501809304018091390352
:1003800090913A03019690933A038093390319822E
:1003900018821B821A821D821C822C2D3D2D2696CE
:1003A000C017D10731F6232B49F4809104019091B5
:1003B0000501019790930501809304018091040148
:1003C00090910501892B31F48FEF88BB74D281E0C5
:1003D00080933603FF91EF91DF91CF91BF91AF9161
:1003E0009F918F917F916F915F914F913F912F914D
:1003F0001F910F91FF90EF90DF90CF900F900BBE69
:100400000F900FBE0F901F9018951F920F920FB66E
:100410000F9211240BB60F922F933F934F935F933C
:100420006F937F938F939F93AF93BF93EF93FF93BC
:10043000ACD20DD21092360385E090E09093050186
:1004400080930401EFE7F3E087EF93E011821082DD
:1004500013821282158214823696E817F907B1F7D3
:10046000E3E4F3E08FE793E01182108213821282BB
:10047000158214823696E817F907B1F710923A03FD
:10048000109239031092400310923F0310923E03E2
:1004900010923D03109238031092370310923C03E0
:1004A00010923B03FF91EF91BF91AF919F918F917C
:1004B0007F916F915F914F913F912F910F900BBE64
:1004C0000F900FBE0F901F9018958F929F92AF9232
:1004D000BF92CF92DF92EF92FF920F931F93CF9331
:1004E000DF93F82E062F1EEF180FC0E0D0E0B12EDC
:1004F000CC24CA94C60EDD24D394D60EEE24E39405
:10050000E80E912C0F2EFEEFAF2EF02DA60E2097A9
:1005100039F46C2D8B2DC3D26D2D8B2DC0D226C0FE
:100520009E01215031092230310548F4892C6A2D71
:10053000680D812FB4D2839485E08812F8CFC33040
:10054000D10561F46C2D8E2DAAD2602F8E2DA7D2ED
:100550006D2D8E2DA4D221961F5FD9CFC430D10529
:1005600029F4602F82E08F0D9AD205C021961F5F7B
:10057000C530D10561F6DF91CF911F910F91FF90AA
:10058000EF90DF90CF90BF90AF909F908F900895A5
:100590000F931F93CF93DF9341EE52E062E380E02D
:1005A00052D26CE380E00CD28091390390913A03EF
:1005B0007AD48091040190910501181619069CF4D3
:1005C000C1E0D0E06C2F80E0FBD18AE213D260E082
:1005D00080E0F6D1CE0121962091040130910501F1
:1005E000821793077CF38091040190910501992370
:1005F0006CF02FEF80E090E028BB220F0196409135
:1006000004015091050148175907B4F7609141035F
:1006100028E0260F47E38FE33CD3CFE7D3E007EF93
:1006200013E088819981009769F06A817B81611567
:10063000710541F02C813D81820F931F998388833E
:1006400042E045D32696C017D10759F7C3E4D3E05B
:100650000FE713E088819981009761F06A817B81BF
:100660006115710539F02C813D81820F931F9983AB
:1006700088832BDF2696C017D10761F7DF91CF91D2
:100680001F910F910895CF93DF9360914103709173
:100690004203AB01485F5F4F68507109C09104018C
:1006A000D0910501EFE7F3E027EF33E080819181FE
:1006B000C797099778F4828193814817590750F0BA
:1006C0008617970738F021971182108213821282C1
:1006D000158214823696E217F30741F7D09305018D
:1006E000C0930401CD2B31F48FEF88BBE4D081E0BF
:1006F00080933603DF91CF9108954AEE52E063E094
:1007000082E0A1D149EF52E063E083E09CD14AEE60
:1007100052E063E084E097C10895F7DC36D1EDDF65
:100720002FEF8FEF9DE7215080409040E1F700C010
:1007300000008DD084E041D0969587959695879559
:100740009695879590934203809341032FEF8FE70F
:1007500094E0215080409040E1F700C0000015D1A6
:10076000FED1809136038823F1F0CFDC47E053E0DF
:1007700060E082E068D147E053E060E083E063D16D
:1007800041E153E060E084E05ED16AE084E018D1AA
:100790008091390390913A0386D34FE153E060E0B2
:1007A00085E051D1C7CFF4DE6EDFC4CF16B817B8DD
:1007B00080E888B983EC86B9089593EC96B9806493
:1007C00087B9369A349BFECF24B185B116B890E034
:1007D000982F8827820F911D08951816190654F432
:1007E00020E030E045E04A95F1F72F5F3F4F2817B2
:1007F0003907C1F70895EF92FF920F931F93CF939C
:10080000DF937B0128EE33E0AC01429FC001439FA0
:10081000900D529F900D112418D56115710581F02E
:100820008B01C5E6D0E0988190619883C701D5DF40
:1008300098819F7E9883C701D0DF0150110999F7F5
:10084000DF91CF911F910F91FF90EF90089565E692
:1008500070E083E290E0CFDF6AE570E08EE190E047
:10086000CADF60E570E083E290E0C5DF6CE470E031
:100870008EE190E0C0DF64E470E083E290E0BBDFF3
:100880006DE370E08EE190E0B6DF66E370E083E256
:1008900090E0B1DF63E370E08EE190E0ACCF0895CB
:1008A00065E670E083E290E0A6DF60E570E083E259
:1008B00090E0A1CF0895CF93C4E064E470E083E2B8
:1008C00090E099DF65E670E083E290E094DFC1504C
:1008D000A1F7CF9108951D9A91E39A95F1F7000041
:1008E0001C981E981F9A8BBB81E38A95F1F7000034
:1008F0001D9808951D9A91E39A95F1F700001C98B0
:100900001E9A1F988BBB81E38A95F1F700001D9812
:1009100008951D9A91E39A95F1F700001C981E9A8C
:100920001F9A8BBB81E38A95F1F700001D9808950B
:100930001D9A91E39A95F1F700001C9A1E981F9A50
:100940008BBB81E38A95F1F700001D9808951D9AED
:1009500091E39A95F1F700001C9A1E9A1F988BBBA1
:1009600081E38A95F1F700001D9808951D9A91E39F
:100970009A95F1F700001C9A1E9A1F9A8BBB81E38F
:100980008A95F1F700001D980895CF93DF93D8EB77
:100990008D2FBFDF80E4BDDFC0E480E0E7DFC15022
:1009A000E1F7DF5FD03CA1F7DF91CF9108958FE3AE
:1009B000B0DF80ECAEDF88EBACDF80E4AACF089537
:1009C0008093F7036093FA078854A3DF8091FA07B6
:1009D0008A3038F4982F990F890F880F8C5B7BCF62
:1009E000089590E00A97982F990F890F880F805CDF
:1009F00081CF08951F93CF93DF9390E0EC01CC0F4C
:100A0000DD1FCC0FDD1F8C0F9D1FEC01CA59DF4F7E
:100A100015E08091FA078A3018F4888189DF02C0D6
:100A2000888195DF115021961111F3CF8091FA073B
:100A30008A3018F480E07CDF02C080E088DFDF913C
:100A4000CF911F910895CF93DF93EA018093F7032D
:100A50006093FA07B5DF8881882381F08091FA07D7
:100A60008A3011F480E446DF8991C4DF8091FA076F
:100A70008F5F8093FA0788818111F0CFDF91CF914A
:100A80000895CF93C62F885444DFC03420F480E407
:100A90008C0F21DF02C08C2F2DDFCF910895EF92B4
:100AA000FF920F931F93CF93803408F052C06623B8
:100AB0000CF44FC0282F269526952695982F9770D1
:100AC00071F0913071F0923071F0933071F0943098
:100AD00071F0953071F0963071F090E80DC091E0B2
:100AE0000BC092E009C094E007C098E005C090E117
:100AF00003C090E201C090E4C62FE62EF12C022F35
:100B000010E0F70180E8289FE00DF11D1124E65068
:100B1000FC4F8081892B8083822FB3DFC03468F43F
:100B2000F801F695FE2FEE27F795E795EE0DFF1DE0
:100B3000E650FC4F8081FCDE0CC0F801F695FE2FDC
:100B4000EE27F795E795EE0DFF1DE650FC4F8081EF
:100B5000FEDECF911F910F91FF90EF900895EAEF85
:100B6000F3E02AEF37E008C01192E817F907E1F740
:100B7000FC018217930721F0CF0180589F4FF4CFDB
:100B800008958F929F92AF92BF92CF92DF92EF9291
:100B9000FF920F931F93CF93DF93621709F447C01F
:100BA000621718F570E0022F10E0061717070CF413
:100BB00063C0C82FD0E0C42ED12CCC1ADD0A4B0163
:100BC000E12CF12C5801A61AB70AC701B50151D37F
:100BD000862F682D8C0F63DF8FEF881A980AEC0C34
:100BE000FD1C081519058CF747C070E0022F10E0B6
:100BF000601771070CF440C0C82FD0E05E01A41A42
:100C0000B1084B01E12CF12C6801C61AD70AC701C3
:100C1000B6012FD3862F682D8C0F41DF81E0881A13
:100C20009108EA0CFB1C801691068CF725C08417EE
:100C300011F1841780F4C82FD0E0E42EF12CEC16CB
:100C4000FD06D4F0162F612F8C2F29DF2196EC168C
:100C5000FD06CCF711C0C82FD0E0E42EF12CCE1544
:100C6000DF0554F0162F612F8C2F19DF2197CE1539
:100C7000DF05CCF701C013DFDF91CF911F910F91FA
:100C8000FF90EF90DF90CF90BF90AF909F908F90AC
:100C900008950F931F93CF93DF93C82F062F142F20
:100CA000D22F482F6EDF2D2F412F602F812F69DF2C
:100CB000202F412F602F8C2F64DF2D2F412F6D2F80
:100CC0008C2F5FDFDF91CF911F910F9108952F92AD
:100CD0003F924F925F926F927F928F929F92AF92CC
:100CE000BF92CF92DF92EF92FF920F931F93CF9319
:100CF000DF93CDB7DEB727970FB6F894DEBF0FBEF0
:100D0000CDBF8D83E62EF12C242F30E03C832B8346
:100D10008901000F111F020F131FC80195958795B8
:100D2000959587959A838983F701E81BF90BFF83D3
:100D3000EE836C01CE0CDF1CCE16DF060CF439C03E
:100D4000229F3001239F700C700C11248C0127010D
:100D5000FD812F2E8E819F8184199509089F400166
:100D6000099F900C189F900C1124860C971C092C3D
:100D7000000CAA08BB08C501B40184D113D220E03D
:100D800030E040E05FE3ECD04FD1A62E6E81822DA3
:100D90008A0D85DE6E81822D8A1981DE2E813F814A
:100DA0002F5F3F4F3F832E8301501109C216D30698
:100DB0008CF63D81C32ED12C160189819A81281A87
:100DC000390AC80ED91EC214D3040CF439C0EB8101
:100DD000FC81EE9F3001EF9F700C700C11248C0190
:100DE000432E512CC10184199509089F4001099F88
:100DF000900C189F900C1124860C971C092C000C49
:100E0000AA08BB08C501B4013DD1CCD120E030E037
:100E100040E05FE3A5D008D1A62EB12CB7016A0D42
:100E20007B1D822D3CDEB7016A197B09822D37DEDE
:100E3000FFEF2F1A3F0A01501109C214D30494F690
:100E400027960FB6F894DEBF0FBECDBFDF91CF91CE
:100E50001F910F91FF90EF90DF90CF90BF90AF90D8
:100E60009F908F907F906F905F904F903F902F90CA
:100E700008959DEC899F912D1124969596959695B0
:100E8000990F292F220F220F920F891B982F31F4CF
:100E9000611104C080E2AEDD80E0089580E3890F37
:100EA000A9DD81E008950F931F93CF93DF93AC01E9
:100EB0009C01369527953695279536952795A5EC6F
:100EC000B0E2EAD1EC01D295C295CF70CD27DF70A8
:100ED000CD2728EE33E0C29FC001C39F900DD29F63
:100EE000900D1124EA01C81BD90B9E013695279558
:100EF00036952795ABE7B4E1CFD18C0116950795D0
:100F000060E0802FB6DF482F24E6209FC001219F9C
:100F1000900D1124C81BD90B9E01ADECBCECBCD1CB
:100F20008C01169507951695079516950795642FCC
:100F3000802F9FDFC801880F991F000F111F000F1E
:100F4000111F000F111F080F191FCE01801B910BDD
:100F5000805D50DDDF91CF911F910F910895505822
:100F6000BB27AA270ED0E0C0D1D030F0D6D020F0D9
:100F700031F49F3F11F41EF4C6C00EF4E095E7FB78
:100F8000BCC0E92FE2D080F3BA1762077307840769
:100F9000950718F071F49EF5FAC00EF4E0950B2E4B
:100FA000BA2FA02D0B01B90190010C01CA01A001BB
:100FB0001124FF27591B99F0593F50F4503E68F116
:100FC0001A16F040A22F232F342F4427585FF3CF57
:100FD000469537952795A795F0405395C9F77EF428
:100FE0001F16BA0B620B730B840BBAF09150A1F071
:100FF000FF0FBB1F661F771F881FC2F70EC0BA0FF7
:10100000621F731F841F48F4879577956795B7957E
:10101000F7959E3F08F0B3CF9395880F08F0992776
:10102000EE0F97958795089598D088F09F5790F088
:10103000B92F9927B751A0F0D1F0660F771F881FFD
:10104000991F1AF0BA95C9F712C0B13081F09FD03C
:10105000B1E008959CC0672F782F8827B85F39F0DA
:10106000B93FCCF3869577956795B395D9F73EF45C
:1010700090958095709561957F4F8F4F9F4F089504
:10108000E89409C097FB3EF4909580957095619522
:101090007F4F8F4F9F4F9923A9F0F92F96E9BB27D8
:1010A0009395F695879577956795B795F111F8CF54
:1010B000FAF4BB0F11F460FF1BC06F5F7F4F8F4FBF
:1010C0009F4F16C0882311F096E911C0772321F0B5
:1010D0009EE8872F762F05C0662371F096E8862F4D
:1010E00070E060E02AF09A95660F771F881FDAF7A4
:1010F000880F9695879597F9089597F99F6780E8E7
:1011000070E060E008959FEF80EC089500240A9459
:101110001616170618060906089500240A941216D2
:101120001306140605060895092E0394000C11F405
:10113000882352F0BB0F40F4BF2B11F460FF04C0B2
:101140006F5F7F4F8F4F9F4F089557FD9058440F0B
:10115000551F59F05F3F71F04795880F97FB991F16
:1011600061F09F3F79F087950895121613061406D3
:10117000551FF2CF4695F1DF08C016161706180660
:10118000991FF1CF86957105610508940895E8943B
:10119000BB2766277727CB0197F9089511F40EF442
:1011A000B2CF3EC0DADFD0F39923D9F3CEF39F5705
:1011B000550B87FF43D00024A0E640EA90018058F9
:1011C0005695979528F4805C660F771F881F20F04E
:1011D00026173707480730F4621B730B840B20294E
:1011E00031294A2BA69517940794202531254A27A3
:1011F00058F7660F771F881F20F026173707480714
:1012000030F4620B730B840B200D311D411DA09532
:1012100081F7B901842F9158880F96958795089585
:101220009F3F31F0915020F4879577956795B7955A
:10123000880F911D9695879597F908959150504084
:10124000660F771F881FD2F70895AA1BBB1B51E1B9
:1012500007C0AA1FBB1FA617B70710F0A61BB70B26
:10126000881F991F5A95A9F780959095BC01CD01CB
:10127000089597FB072E16F4009406D077FD08D04A
:10128000E4DF07FC05D03EF4909581959F4F0895CB
:10129000709561957F4F0895A29FB001B39FC001E3
:1012A000A39F700D811D1124911DB29F700D811D92
:1012B0001124911D08958F929F92AF92BF92CF9269
:1012C000DF92EF92FF92CF93DF93EC0168817981F7
:1012D0008A819B81611571058105910521F464E284
:1012E00079ED8BE597E02DE133EF41E050E038D028
:1012F00049015A019B01AC01A7EAB1E44DD06B0151
:101300007C01ACEEB4EFA501940152D0DC01CB011D
:101310008C0D9D1DAE1DBF1DB7FF03C00197A10918
:10132000B04888839983AA83BB839F77DF91CF914D
:10133000FF90EF90DF90CF90BF90AF909F908F90F5
:101340000895B9CF80E091E0B6CFA0E0B0E08093FF
:10135000000190930101A0930201B093030108954D
:10136000052E97FB16F400940FD057FD05D024D01E
:1013700007FC02D046F408C0509540953095219561
:101380003F4F4F4F5F4F08959095809570956195B1
:101390007F4F8F4F9F4F08957FDFA59F900DB49F84
:1013A000900DA49F800D911D11240895B7FFF4CFD7
:1013B000F3DF821B930B0895A1E21A2EAA1BBB1B1D
:1013C000FD010DC0AA1FBB1FEE1FFF1FA217B30711
:1013D000E407F50720F0A21BB30BE40BF50B661F27
:1013E000771F881F991F1A9469F7609570958095EB
:1013F00090959B01AC01BD01CF010895F894FFCFFA
:10140000010000000500000000000000004F000087
:101410000007000700147F147F14242A7F2A122358
:101420001308646236495522500005030000001C71
:101430002241000041221C0014083E081408083E06
:101440000808005030000008080808080060600024
:101450000020100804023E5149453E00427F4000F2
:1014600042615149462141454B311814127F1027E2
:10147000454545393C4A494930017109050336491A
:10148000494936064949291E0036360000005636BD
:1014900000000814224100141414141400412214F2
:1014A000080201510906324979413E7E1111117E2F
:1014B0007F494949363E414141227F4141221C7FBB
:1014C000494949417F090909013E4149497A7F0853
:1014D00008087F00417F41002040413F017F081400
:1014E00022417F404040407F020C027F7F04081071
:1014F0007F3E4141413E7F090909063E4151215E3F
:101500007F09192946264949493201017F01013FD6
:101510004040403F1F2040201F3F4038403F631461
:1015200008146307087008076151494543007F416B
:10153000410002040810200041417F000402010222
:1015400004404040404000010204002054545478BC
:101550007F484444383844444420384444487F3821
:1015600054545418087E0901020C5252523E7F080E
:1015700004047800047D00002040443D007F1028D2
:10158000440000417F40007C0418047C7C08040473
:101590007838444444387C14141408081414187C13
:1015A0007C080404084854545420043F4440203C20
:1015B0004040207C1C2040201C3C4030403C4428C3
:1015C0001028440C5050503C4464544C440008369D
:1015D00041000000770000004136080008040810B0
:1015E0000853636F7265203A20003D3D3D3D3D3D0F
:1015F0003D3D3D3D3D3D3D3D005371756172652072
:101600005363617265640047616D65204F76657252
:1016100000596F75722073636F7265203A20005015
:1016200072657373203150696E20746F2052657338
:06163000746172740000F9
:00000001FF
